:100000000C9462000C948A000C948A000C948A0070
:100010000C948A000C948A000C948A000C948A0038
:100020000C948A000C948A000C948A000C948A0028
:100030000C948A000C948A000C948A000C948A0018
:100040000C9421030C948A000C948A000C948A006E
:100050000C948A000C948A000C948A000C948A00F8
:100060000C948A000C948A000000000024002700F1
:100070002A0000000000250028002B0000000000DE
:1000800023002600290004040404040404040202DA
:100090000202020203030303030301020408102007
:1000A0004080010204081020010204081020000012
:1000B0000008000201000003040700000000000027
:1000C0000000940511241FBECFEFD8E0DEBFCDBFE6
:1000D00011E0A0E0B1E0E0E8FBE002C005900D9285
:1000E000A431B107D9F721E0A4E1B1E001C01D922C
:1000F000A934B207E1F710E0C2E6D0E004C02197CE
:10010000FE010E94B305C136D107C9F70E946B03F7
:100110000C94BE050C940000833081F028F48130EB
:1001200099F08230A1F008958730A9F08830B9F0B5
:100130008430D1F4809180008F7D03C08091800055
:100140008F7780938000089584B58F7702C084B53F
:100150008F7D84BD08958091B0008F7703C080911A
:10016000B0008F7D8093B0000895CF93DF93282F48
:1001700030E0F901E255FF4F8491F901E656FF4F57
:10018000D491F901EA57FF4FC491CC2391F081112A
:100190000E948C00EC2FF0E0EE0FFF1FE458FF4FA1
:1001A000A591B491EC91ED2381E090E021F480E001
:1001B00002C080E090E0DF91CF9108951F93CF932C
:1001C000DF93282F30E0F901E255FF4F8491F901C8
:1001D000E656FF4FD491F901EA57FF4FC491CC2363
:1001E000C1F0162F81110E948C00EC2FF0E0EE0F71
:1001F000FF1FEE58FF4FA591B4919FB7F8941111CE
:1002000004C08C91D095D82302C0EC91DE2BDC93F6
:100210009FBFDF91CF911F910895CF93DF9390E01F
:10022000FC01E656FF4F2491FC01EA57FF4F8491F1
:10023000882361F190E0880F991FFC01E859FF4F76
:10024000C591D491FC01EE58FF4FA591B491611175
:1002500009C09FB7F8948881209582238883EC9108
:100260002E230BC0623061F49FB7F8948881322F3F
:10027000309583238883EC912E2B2C939FBF06C04F
:100280008FB7F894E8812E2B28838FBFDF91CF9111
:1002900008953FB7F89480912D0190912E01A0917F
:1002A0002F01B091300126B5A89B05C02F3F19F052
:1002B0000196A11DB11D3FBFBA2FA92F982F8827E6
:1002C000820F911DA11DB11DBC01CD0142E0660F41
:1002D000771F881F991F4A95D1F708958F929F9293
:1002E000AF92BF92CF92DF92EF92FF926B017C01AF
:1002F0000E9449014B015C01C114D104E104F104E5
:10030000F1F00E944901DC01CB0188199909AA0981
:10031000BB09883E9340A105B10570F321E0C21AE4
:10032000D108E108F10888EE880E83E0981EA11C30
:10033000B11CC114D104E104F10419F7DDCFFF9021
:10034000EF90DF90CF90BF90AF909F908F900895E7
:10035000CF92DF92EF92FF920F931F93CF93DF9391
:100360006C017A018B01C0E0D0E0CE15DF0581F091
:10037000D8016D918D01D601ED91FC910190F08134
:10038000E02DC6010995892B11F02196EECF7E0153
:10039000C701DF91CF911F910F91FF90EF90DF90F8
:1003A000CF900895CF93DF93EC0160E08E810E949F
:1003B000DE0061E08E810E94DE0060E08E810E949E
:1003C000DE008BE891E00197F1F7DF91CF9108957E
:1003D000CF92DF92EF92FF920F931F93CF93DF9311
:1003E0006C017C0187E0E80EF11CC0E0D0E0062F34
:1003F00010E0B8010C2E02C0759567950A94E2F7DB
:100400006170F70181917F010E94DE002196C43066
:10041000D10579F7C601DF91CF911F910F91FF9020
:10042000EF90DF90CF900C94D201CF92DF92EF92B9
:10043000FF920F931F93CF93DF93EC01F62E642F5F
:100440008C810E94DE008D818F3F19F060E00E9458
:10045000DE008F850F2D10E084FF25C06E0187E040
:10046000C80ED11CE12CF12CB8010E2C02C07595E0
:1004700067950A94E2F76170F60181916F010E941D
:10048000DE00FFEFEF1AFF0A88E0E816F10461F7DB
:10049000CE01DF91CF911F910F91FF90EF90DF90F0
:1004A000CF900C94D201B80184E0759567958A9538
:1004B000E1F7CE010E94E8016F2DCE01DF91CF91CF
:1004C0001F910F91FF90EF90DF90CF900C94E80177
:1004D00040E0682F81E391E00C941502CF93DF9305
:1004E000623028F0909140019860909340016093B1
:1004F00044011092450190E4909346018093470196
:1005000090E0805C9F4F8093480161E080913501CD
:100510000E940D01809136018F3F19F061E00E9429
:100520000D0161E0809137010E940D01C1E3D1E02E
:100530009E01215331408091400184FD03C084E03D
:1005400090E002C088E090E02196281739072CF44B
:1005500061E08E810E940D01EBCF8BE39DE001975E
:10056000F1F760E0809135010E94DE0060E080914B
:1005700037010E94DE00809136018F3F19F060E064
:100580000E94DE008091400184FD20C063E081E391
:1005900091E00E94E801CBE4D6E4CE010197F1F7A7
:1005A00063E081E391E00E94E8012197F1F763E0C5
:1005B00081E391E00E94E80183E592E00197F1F781
:1005C00062E081E391E00E94E80115C080620E9430
:1005D00068028BE496E40197F1F780914001806214
:1005E0000E94680283E592E00197F1F78091400153
:1005F00080620E9468028091400180620E946802CD
:1006000084E0809341018CE00E94680281E00E94B6
:1006100068028BE39FE10197F1F782E0809342014A
:1006200086E0DF91CF910C94680241E00E941502B0
:1006300081E090E00895089580E090E008950E94A0
:10064000B9051F920F920FB60F9211242F933F936B
:100650008F939F93AF93BF938091290190912A012B
:10066000A0912B01B0912C013091280123E0230FA0
:100670002D3720F40196A11DB11D05C026E8230FDA
:100680000296A11DB11D209328018093290190930A
:100690002A01A0932B01B0932C0180912D01909100
:1006A0002E01A0912F01B09130010196A11DB11D25
:1006B00080932D0190932E01A0932F01B0933001D0
:1006C000BF91AF919F918F913F912F910F900FBE4E
:1006D0000F901F901895789484B5826084BD84B57E
:1006E000816084BD85B5826085BD85B5816085BD2D
:1006F00080916E00816080936E00109281008091E5
:10070000810082608093810080918100816080936C
:100710008100809180008160809380008091B10091
:1007200084608093B1008091B00081608093B000BC
:1007300080917A00846080937A0080917A00826050
:1007400080937A0080917A00816080937A00809112
:100750007A00806880937A001092C10080E40E9441
:100760006802C0E0D1E008E011E0699181E391E026
:100770000E9415030C171D07C1F762E088E20E9472
:100780006E0260E08CE00E940D0160E08BE00E9450
:100790000D0160E08AE00E940D0160E089E00E94A6
:1007A0000D0160E088E00E940D0161E080E00E94A0
:1007B0000D0160E080E00E94DE0061E081E00E94C7
:1007C0000D0160E081E00E94DE00CBE3DFE100E0AC
:1007D00010E084E0E82EF12CC0902001D09021019F
:1007E0008091140190911501C816D90681F064EF2B
:1007F00071E080E090E00E946E0181E00E9468025A
:10080000CE010197F1F7D0921501C0921401DC2CB2
:10081000DD0CDD0CDC0CE1E0809144018111E0E0B5
:10082000E195F0E0EF5CFE4F84898D0D80680E94B9
:10083000680260E081E391E00E94150360E081E3DB
:1008400091E00E94150360E081E391E00E941503AE
:1008500060E081E391E00E94150360E081E391E0B4
:100860000E941503E0914401E23010F4E15001C010
:10087000E1E0F0E0EF5CFE4F84898D0D80680E941E
:10088000680260E081E391E00E94150360E081E38B
:1008900091E00E94150360E081E391E00E9415035E
:1008A00060E081E391E00E94150360E081E391E064
:1008B0000E94150389E00E94B500019709F07AC0F3
:1008C0002FB7F8948091290190912A01A0912B01D2
:1008D000B0912C012FBF8093240190932501A09308
:1008E0002601B093270110922301109222012FB705
:1008F000F8948091290190912A01A0912B01B09147
:100900002C012FBF409124015091250160912601B7
:1009100070912701841B950BA60BB70B8B3F91059C
:10092000A105B10508F046C061E070E080E090E00C
:100930000E946E018CE00E94B500892B21F4F09298
:100940002301E09222018CE00E94B500019721F47E
:1009500010922301109222018BE00E94B500892B96
:1009600049F48091220190912301029690932301F2
:10097000809322018BE00E94B5008AE00E94B500BE
:10098000892B49F480912201909123010196909343
:100990002301809322018AE00E94B50088E00E9432
:1009A000B500892B09F0A3CF64EF71E080E090E0FF
:1009B0000E946E01809122019091230120912001DB
:1009C00030912101821793072CF410921F0110928D
:1009D0001E0115C02817390734F410921F0181E059
:1009E00080931E0108C08217930729F481E0809349
:1009F0001F0110921E0180911F0181110AC0809178
:100A00001E0181118DC080911B01811189C051E0AF
:100A100001C050E050931901811108C080911E015E
:100A200090E0811104C080911B0101C0982F809338
:100A3000180160911E01662339F0911105C0709173
:100A40001A0141E0472701C040E0409317016623A7
:100A500029F0911104C090911A0101C091E0909386
:100A60001601411105C0992341F010921B0105C0E8
:100A7000911140C091E090931B01511105C0882352
:100A800041F010921A0105C0811139C081E08093B4
:100A90001A0190911B01992329F040911A0181E0DC
:100AA000842701C080E080931D01911103C09091C3
:100AB0001A0101C090E090931C01811104C09111B2
:100AC00023C060E009C091110EC02F5F3F4F3093EB
:100AD00021012093200161E081E00E94DE0060E0BE
:100AE00080E00E94DE000115110509F475CE0E9418
:100AF000000072CE40911B0191E09427BCCF9091F1
:100B00001A0181E08927C3CF215031093093210197
:100B10002093200160E081E00E94DE0061E0E0CFF0
:100B20001092190150E07ACFE1E3F1E013821282D2
:100B30008CE091E09183808387E084838FEF8583CD
:100B400086E0868385E0878384E0808783E08187F1
:100B500082E082871386148615861686178661E0E2
:100B600080E10C946E02EE0FFF1F0590F491E02DD2
:100B7000099481E090E0F8940C94BE05F894FFCFBE
:100B8000FFFFFFFFFFFFFFFF000000001503A801AC
:040B90001C031B0324
:00000001FF
